:100000000C942A000C9478110C94C0100C940810D5
:100010000C945D0B0C94300B0C9447000C9447002F
:100020000C9447000C9447000C94930C0C94530CC4
:100030000C94CB0D0C9447000C9447000C94470093
:100040000C947C160C9447000C9447000C944700C9
:100050000C94470011241FBECFE5D8E0DEBFCDBF12
:1000600011E0A0E6B0E0E6E5F3E702C005900D92EE
:10007000AC3FB107D9F712E0ACEFB1E001C01D927F
:10008000A233B107E1F70E94BB380C94A9390C9454
:100090000000EF92FF920F931F937B018C0120E0F1
:1000A00030E040E05FE40E94F50388238CF0C80153
:1000B000B70120E030E040E05FE40E94C1010E940F
:1000C000B3049B01AC01205030404040504806C072
:1000D000C801B7010E94B3049B01AC01B901CA0178
:1000E0001F910F91FF90EF900895A0E0B0E0EBE733
:1000F000F0E00C947239DC012B01FA019C919230F2
:1001000008F439C1EB018881823008F433C194309E
:1001100069F4843009F02FC111969C91119789815F
:10012000981709F428C1A0E6B0E025C1843009F48D
:1001300021C18230A9F4923009F01DC19A01AD01AC
:1001400088E0EA010990AE01E90109929E0181501F
:10015000C1F7E201898111969C918923818308C1AD
:10016000923009F407C112962D903C901397EB0141
:100170008A819B811496AD90BD90CD90DC901797AD
:10018000EC80FD800E811F819101281B390BB90184
:1001900037FF04C066277727621B730B6032710537
:1001A0000CF061C0121613066CF537014801062EDB
:1001B00004C096948794779467940A94D2F721E0C8
:1001C00030E040E050E004C0220F331F441F551FB1
:1001D0006A95D2F721503040404050402E213F21B7
:1001E00040235123211531054105510521F021E01E
:1001F00030E040E050E079018A01E628F72808293C
:1002000019293CC0232BD1F1260E371E350146019A
:10021000062E04C096948794779467940A94D2F734
:1002200021E030E040E050E004C0220F331F441FC3
:10023000551F6A95D2F721503040404050402A2146
:100240003B214C215D21211531054105510521F04E
:1002500021E030E040E050E059016A01A628B728CB
:10026000C828D9280BC0821593052CF01C01AA249C
:10027000BB24650103C0EE24FF24870111969C91E5
:10028000D20111968C91981709F445C0992339F041
:10029000A80197012A193B094C095D0906C0A6016E
:1002A00095012E193F09400B510B57FD08C01182D3
:1002B0003382228224833583468357831DC081E0A5
:1002C00081833382228288279927DC01821B930B4A
:1002D000A40BB50B84839583A683B7830DC0220F2F
:1002E000331F441F551F24833583468357838281E0
:1002F000938101979383828324813581468157813D
:10030000DA01C9010197A109B1098F5F9F4FAF4F72
:10031000BF4328F30BC0918333822282EA0CFB1C7B
:100320000C1D1D1DE482F5820683178383E0808304
:10033000248135814681578157FF1AC0C901AA27F8
:1003400097FDA095BA2F81709070A070B0705695EF
:10035000479537952795822B932BA42BB52B848318
:100360009583A683B7838281938101969383828349
:10037000DF0101C0D201CD01CDB7DEB7E2E10C94BF
:100380008E39A0E2B0E0E7ECF1E00C947E396983AD
:100390007A838B839C832D833E834F835887E9E048
:1003A000EE2EF12CEC0EFD1ECE010196B7010E943F
:1003B000A4068E010F5E1F4FCE010596B8010E9464
:1003C000A4068A8991E089278A8BC701B801AE010A
:1003D000475E5F4F0E9475000E94CF05A096E6E041
:1003E0000C949A39A0E2B0E0E8EFF1E00C947E3989
:1003F00069837A838B839C832D833E834F835887C5
:10040000F9E0EF2EF12CEC0EFD1ECE010196B701A6
:100410000E94A4068E010F5E1F4FCE010596B80103
:100420000E94A406C701B801AE01475E5F4F0E945B
:1004300075000E94CF05A096E6E00C949A39A0E2E0
:10044000B0E0E5E2F2E00C94723969837A838B8341
:100450009C832D833E834F835887CE010196BE0136
:10046000675F7F4F0E94A406CE010596BE016F5EB6
:100470007F4F0E94A4069985923088F08989823046
:10048000C8F0943019F4823051F404C0843029F457
:10049000923081F480E690E0C6C0923049F420E0CA
:1004A0009A858A89981321E02A87CE010996BBC0D4
:1004B000823049F420E09A858A89981321E02A8BBA
:1004C000CE014196B0C02D843E844F8458886D88FB
:1004D0007E888F88988CEE24FF248701AA24BB2471
:1004E000650140E050E060E070E0E0E0F0E0C10174
:1004F00081709070892BE9F0E60CF71C081D191D1E
:100500009A01AB012A0D3B1D4C1D5D1D80E090E062
:10051000A0E0B0E0E614F7040805190520F481E036
:1005200090E0A0E0B0E0BA01A901480F591F6A1F8E
:100530007B1FAA0CBB1CCC1CDD1C97FE08C081E0F5
:1005400090E0A0E0B0E0A82AB92ACA2ADB2A3196B6
:10055000E032F10549F0660C771C881C991C569412
:10056000479437942794C3CFFA85EA892B893C892D
:100570008B859C85280F391F2E5F3F4F17C0CA01FE
:1005800081709070892B61F016950795F794E79428
:1005900080E090E0A0E0B0E8E82AF92A0A2B1B2BC3
:1005A00076956795579547952F5F3F4F77FDE7CF36
:1005B0000CC0440F551F661F771F17FD4160EE0CDE
:1005C000FF1C001F111F21503040403090E05907A0
:1005D00090E0690790E4790760F32B8F3C8FDB0193
:1005E000CA018F779070A070B07080349105A1051A
:1005F000B10561F447FD0AC0E114F10401051105DC
:1006000029F0405C5F4F6F4F7F4F40781A8EFE1786
:1006100011F081E08A8F4D8F5E8F6F8F78A383E01A
:10062000898FCE0149960E94CF05A096E2E10C94F5
:100630008E39A8E1B0E0EFE1F3E00C947A396983F8
:100640007A838B839C832D833E834F835887B9E0C5
:10065000EB2EF12CEC0EFD1ECE010196B7010E948F
:10066000A4068E010F5E1F4FCE010596B8010E94B1
:10067000A4062985223008F47EC03989323010F46E
:10068000B8017CC08A859A8989278A87243011F02D
:10069000223031F4231709F06EC060E670E06EC0BE
:1006A000343039F41D861E861F86188A1C861B86E8
:1006B00004C0323021F484E08987B7015FC02B8504
:1006C0003C858B899C89281B390B3C872B87ED84C3
:1006D000FE840F851889AD88BE88CF88D88CEA142F
:1006E000FB040C051D0540F4EE0CFF1C001F111F40
:1006F000215030403C872B8720E030E040E050E044
:1007000080E090E0A0E0B0E460E070E0EA14FB0478
:100710000C051D0540F0282B392B4A2B5B2BEA18C2
:10072000FB080C091D09B695A79597958795EE0CC2
:10073000FF1C001F111F6F5F7F4F6F31710531F775
:10074000DA01C9018F779070A070B0708034910584
:10075000A105B10561F427FD0AC0E114F10401050A
:10076000110529F0205C3F4F4F4F5F4F20782D87B8
:100770003E874F87588BBE01675F7F4FCB010E943A
:10078000CF056896EAE00C949639A8E1B0E0EBEC6E
:10079000F3E00C947E3969837A838B839C832D8369
:1007A0003E834F83588789E0E82EF12CEC0EFD1E26
:1007B000CE010196B7010E94A4068E010F5E1F4F65
:1007C000CE010596B8010E94A4068985823040F0CA
:1007D0008989823028F0C701B8010E941C0701C036
:1007E0008FEF6896E6E00C949A39A8E1B0E0EBEF61
:1007F000F3E00C947E3969837A838B839C832D8309
:100800003E834F83588789E0E82EF12CEC0EFD1EC5
:10081000CE010196B7010E94A4068E010F5E1F4F04
:10082000CE010596B8010E94A4068985823040F069
:100830008989823028F0C701B8010E941C0701C0D5
:100840008FEF6896E6E00C949A39A8E1B0E0EBE20D
:10085000F4E00C947E3969837A838B839C832D83A7
:100860003E834F83588789E0E82EF12CEC0EFD1E65
:10087000CE010196B7010E94A4068E010F5E1F4FA4
:10088000CE010596B8010E94A4068985823040F009
:100890008989823028F0C701B8010E941C0701C075
:1008A00081E06896E6E00C949A39A8E0B0E0EBE5C8
:1008B000F4E00C947B399B01AC0183E08983DA017D
:1008C000C9018827B7FD83959927AA27BB27B82E8A
:1008D000211531054105510519F482E089833AC09B
:1008E0008823A9F0203080E0380780E0480780E8BE
:1008F000580729F460E070E080E09FEC30C0EE24FF
:10090000FF248701E21AF30A040B150B02C07901D8
:100910008A018EE1C82ED12CDC82CB82ED82FE8250
:100920000F831887C801B7010E9480050197181628
:10093000190684F4082E04C0EE0CFF1C001F111FC2
:100940000A94D2F7ED82FE820F831887C81AD90A5B
:10095000DC82CB82BA82CE0101960E94CF05289616
:10096000E9E00C949739ACE0B0E0E9EBF4E00C94EA
:10097000823969837A838B839C83CE010196BE0181
:100980006B5F7F4F0E94A4068D81823061F18230BF
:1009900050F1843021F48E81882351F12EC02F81B3
:1009A000388537FD20C06E812F3131051CF066235C
:1009B000F9F023C08EE190E0821B930B29853A85E4
:1009C0004B855C8504C056954795379527958A9544
:1009D000D2F76623B1F050954095309521953F4F61
:1009E0004F4F5F4F0EC020E030E040E050E009C0C4
:1009F0002FEF3FEF4FEF5FE704C020E030E040E033
:100A000050E8B901CA012C96E2E00C949E39A8E0A6
:100A1000B0E0EDE0F5E00C947A397B018C016115D2
:100A200071058105910519F482E0898360C083E036
:100A300089838EE1C82ED12CDC82CB82ED82FE82AE
:100A40000F831887C801B7010E948005FC01319708
:100A5000F7FF3BC0222733272E1B3F0B57016801AE
:100A6000022E04C0D694C794B794A7940A94D2F7E0
:100A700040E050E060E070E081E090E0A0E0B0E0B5
:100A800004C0880F991FAA1FBB1F2A95D2F7019790
:100A9000A109B1098E219F21A023B1230097A105AF
:100AA000B10521F041E050E060E070E04A295B29A7
:100AB0006C297D294D835E836F8378878EE190E07A
:100AC0008E1B9F0B9C838B8312C0309781F00E2E60
:100AD00004C0EE0CFF1C001F111F0A94D2F7ED8218
:100AE000FE820F831887CE1ADF0ADC82CB821A823D
:100AF000CE0101960E94CF052896EAE00C94963923
:100B0000EF92FF920F931F937B018C0180E0E81618
:100B100080E0F80681E0080780E0180788F48FEF8E
:100B2000E816F1040105110531F028F088E090E0A5
:100B3000A0E0B0E017C080E090E0A0E0B0E012C01C
:100B400080E0E81680E0F80680E0080781E01807FA
:100B500028F088E190E0A0E0B0E004C080E190E0FF
:100B6000A0E0B0E020E230E040E050E0281B390B8C
:100B70004A0B5B0B04C016950795F794E7948A958A
:100B8000D2F7F701E859FF4F8081281B310941094D
:100B90005109C9011F910F91FF90EF900895DF92C5
:100BA000EF92FF920F931F93FC01E480F580068182
:100BB0001781D1808081823048F480E090E0A0E10C
:100BC000B0E0E82AF92A0A2B1B2BA5C0843009F4CF
:100BD0009FC0823021F4EE24FF24870105C0E11478
:100BE000F1040105110519F4E0E0F0E096C062811E
:100BF00073819FEF623879070CF05BC022E83FEF0A
:100C0000261B370B2A3131052CF020E030E040E084
:100C100050E02AC0B801A701022E04C0769567955E
:100C2000579547950A94D2F781E090E0A0E0B0E0B4
:100C300004C0880F991FAA1FBB1F2A95D2F70197DE
:100C4000A109B1098E219F21A023B1230097A105FD
:100C5000B10521F081E090E0A0E0B0E09A01AB01A5
:100C6000282B392B4A2B5B2BDA01C9018F77907027
:100C7000A070B07080349105A105B10539F427FF4B
:100C800009C0205C3F4F4F4F5F4F04C0215C3F4F76
:100C90004F4F5F4FE0E0F0E02030A0E03A07A0E0E7
:100CA0004A07A0E45A0710F0E1E0F0E079018A0178
:100CB00027C06038710564F5FB01E158FF4FD8018A
:100CC000C7018F779070A070B07080349105A10536
:100CD000B10539F4E7FE0DC080E490E0A0E0B0E09B
:100CE00004C08FE390E0A0E0B0E0E80EF91E0A1F18
:100CF0001B1F17FF05C016950795F794E7943196CB
:100D000087E016950795F794E7948A95D1F705C083
:100D1000EE24FF248701EFEFF0E06E2F6795662742
:100D20006795902F9F77D794DD24D7948E2F869543
:100D3000492F462B582F5D29B701CA011F910F91EA
:100D4000FF90EF90DF900895FC01DB01408151811D
:100D50002281622F6F7770E0221F2227221F93814A
:100D6000892F880F822B282F30E0991F9927991FF0
:100D700011969C93119721153105A9F5411551053F
:100D80006105710511F482E037C082E89FEF139688
:100D90009C938E9312979A01AB0167E0220F331F49
:100DA000441F551F6A95D1F783E08C930DC0220F25
:100DB000331F441F551F12968D919C9113970197D5
:100DC00013969C938E931297203080E0380780E032
:100DD000480780E4580758F314962D933D934D939C
:100DE0005C93179708952F3F310579F4411551050C
:100DF0006105710519F484E08C93089564FF03C0C4
:100E000081E08C9312C01C9210C02F573040139673
:100E10003C932E93129783E08C9387E0440F551FE9
:100E2000661F771F8A95D1F7706414964D935D9372
:100E30006D937C93179708951F93DC01FB019C91A0
:100E4000923008F447C08081823008F443C0943067
:100E500051F411961C91843099F58181682F70E0CE
:100E6000611B71093FC0843021F0923031F482302F
:100E7000B9F18181882389F12DC011961C911197B8
:100E80008230F1F081811817D9F412962D913C919E
:100E90001397828193818217930794F0281739075B
:100EA000BCF014968D919D910D90BC91A02D248144
:100EB000358146815781281739074A075B0718F49F
:100EC000112341F00AC082179307A407B50740F425
:100ED000112319F061E070E005C06FEF7FEF02C0F1
:100EE00060E070E0CB011F910895DF93CF93CDB701
:100EF000DEB72AE132E080E0B9010E94C712CF914B
:100F0000DF910895DF93CF93CDB7DEB780911A02BA
:100F1000CF91DF910895DF93CF93CDB7DEB70E94D5
:100F2000820780931B0280911B02882F90E09C0116
:100F3000220F331FC901880F991F880F991F880F2F
:100F4000991F821B930BFC01E759FE4F0190F08122
:100F5000E02D86E298E0099580911B02282F30E071
:100F6000C901880F991F880F991F880F991F821B2D
:100F7000930B0196880F991FFC01E759FE4F0190D2
:100F8000F081E02D83EA99E00995CF91DF910895F2
:100F9000DF93CF9300D000D0CDB7DEB79A8389839B
:100FA0007C836B8380911B02882F90E09C01220F31
:100FB000331FC901880F991F880F991F880F991F28
:100FC000821B930BFC01ED58FE4F80819181A28121
:100FD000B381BC01CD010E940705DC01CB0120914A
:100FE0000602309107024091080250910902BC01AB
:100FF000CD010E941903DC01CB01E981FA818083D4
:101000009183A283B3838091020290910302A09105
:101010000402B0910502209106023091070240912E
:10102000080250910902BC01CD010E941903DC01A4
:10103000CB01EB81FC8180839183A283B3830F90EA
:101040000F900F900F90CF91DF910895EF92FF9244
:101050000F931F93DF93CF93CDB7DEB780916801D5
:101060008130C9F580911B02882F90E09C01220FEE
:10107000331FC901880F991F880F991F880F991F67
:10108000821B930BFC01E359FE4F0190F081E02D90
:10109000099580930A0280911B02882F90E09C01A1
:1010A000220F331FC901880F991F880F991F880FBE
:1010B000991F821B930BFC01E159FE4F0190F081B7
:1010C000E02D80E009951092FD011092FC0182E074
:1010D0008093680131C180916801823009F071C04C
:1010E00080911B02882F90E09C01220F331FC901C1
:1010F000880F991F880F991F880F991F821B930BC8
:10110000FC01E359FE4F0190F081E02D0995AC01FF
:1011100080911B02882F90E09C01220F331FC90190
:10112000880F991F880F991F880F991F821B930B97
:10113000FC01EF58FE4F208131818091FC0190919C
:10114000FD01BC01269FC001279F900D369F900D89
:1011500011249A01280F391F80910A02882F90E0EC
:10116000A901481B590BCA01CC01A0E0B0E0BC01A9
:10117000CD010E940705DC01CB018093FE01909315
:10118000FF01A0930002B093010280911B02882FFF
:1011900090E09C01220F331FC901880F991F880F0F
:1011A000991F880F991F821B930BFC01E159FE4F79
:1011B0000190F081E02D81E0099583E08093680142
:1011C000BBC080916801833009F0B6C080911B02DA
:1011D000882F90E09C01220F331FC901880F991FAF
:1011E000880F991F880F991F821B930BFC01E359ED
:1011F000FE4F0190F081E02D0995CC01A0E0B0E018
:10120000BC01CD010E9407057B018C0180911B026E
:10121000882F90E09C01220F331FC901880F991F6E
:10122000880F991F880F991F821B930BFC01EF58A1
:10123000FE4F208131818091FC019091FD01BC0124
:10124000269FC001279F900D369F900D1124CC0141
:10125000A0E0B0E0BC01CD010E9407059B01AC01FC
:10126000C801B7010E94F201DC01CB017C018D01B4
:1012700080910A02882F90E0AA2797FDA095BA2FA7
:10128000BC01CD010E9455049B01AC01C801B7010E
:101290000E94C101DC01CB018093060290930702FA
:1012A000A0930802B09309028091FE019091FF0182
:1012B000A0910002B0910102809302029093030278
:1012C000A0930402B09305021092FD011092FC015C
:1012D00080911B02882F90E09C01220F331FC901CF
:1012E000880F991F880F991F880F991F821B930BD6
:1012F000FC01E159FE4F0190F081E02D80E009955D
:1013000080911B02882F90E09C01220F331FC9019E
:10131000880F991F880F991F880F991F821B930BA5
:10132000FC01E359FE4F0190F081E02D0995809377
:101330000A0282E080936801CF91DF911F910F91A3
:10134000FF90EF900895DF93CF93CDB7DEB78091F4
:101350000B028F5F80930B028091FC019091FD0145
:1013600001969093FD018093FC01CF91DF91089548
:10137000DF93CF93CDB7DEB7A0E4B0E0E0E4F0E0D8
:10138000808180688C93AAE2B0E0EAE2F0E080819C
:1013900080618C93AAE2B0E0EAE2F0E080818860AC
:1013A0008C93AAE2B0E0EAE2F0E0808180688C935E
:1013B000AAE2B0E0EAE2F0E0808180648C93AAE2E5
:1013C000B0E0EAE2F0E0808180628C93AAE2B0E0D3
:1013D000EAE2F0E0808180628C93A0E4B0E0E0E497
:1013E000F0E0808180648C93A0E4B0E0E0E4F0E081
:1013F00080818C93A0E4B0E0E0E4F0E08081816043
:101400008C93A0E4B0E0E0E4F0E0808188608C930D
:10141000A0E4B0E0E0E4F0E0808182608C93A0E49E
:10142000B0E0E0E4F0E0808184608C93AAE2B0E078
:10143000EAE2F0E080818B7F8C93E0E4F0E01082C0
:10144000E9E2F0E083E38083CF91DF910895DF93B9
:10145000CF930F92CDB7DEB78983EBE2F0E08081C6
:10146000829586958770882F90E0817090700097A4
:10147000A1F3ECE2F0E0898180830F90CF91DF91BE
:101480000895DF93CF9300D00F92CDB7DEB79A8344
:101490008983EBE2F0E08081881F8827881F8130F4
:1014A00029F4ECE2F0E080818B830AC089819A8183
:1014B00001979A83898389819A81009751F71B82CA
:1014C0008B810F900F900F90CF91DF910895DF9354
:1014D000CF93CDB7DEB7A5E4B0E0E5E4F0E08081DE
:1014E0008F7B8C93A5E4B0E0E5E4F0E08081877F1A
:1014F0008C93A5E4B0E0E5E4F0E08081887F8C93F4
:10150000A5E4B0E0E5E4F0E0808182608C93E4E45F
:10151000F0E01082E3E4F0E01082A9E5B0E0E9E554
:10152000F0E080818F7B8C93A9E5B0E0E9E5F0E005
:1015300080818F778C93A8E5B0E0E8E5F0E08081CA
:1015400080648C93A8E5B0E0E8E5F0E080818068F5
:101550008C93CF91DF910895DF93CF930F92CDB706
:10156000DEB78983E4E4F0E0898180830F90CF9136
:10157000DF910895DF93CF930F92CDB7DEB78983C4
:10158000E3E4F0E0898180830F90CF91DF910895AB
:10159000DF93CF93CDB7DEB7A9E5B0E0E9E5F0E0A2
:1015A000808180648C93CF91DF910895DF93CF93F6
:1015B000CDB7DEB7A9E5B0E0E9E5F0E080818F7B4B
:1015C0008C93CF91DF910895DF93CF93CDB7DEB7A2
:1015D000A9E5B0E0E9E5F0E0808180688C93CF91E7
:1015E000DF910895DF93CF93CDB7DEB7A9E5B0E0E3
:1015F000E9E5F0E080818F778C93CF91DF910895BA
:10160000DF93CF9300D0CDB7DEB79A8389838091E3
:101610001C0290911D029A8389830F900F90CF91A5
:10162000DF910895DF93CF9300D0CDB7DEB79A83D3
:10163000898380911E0290911F029A8389830F9063
:101640000F90CF91DF910895DF93CF93CDB7DEB7A1
:10165000E4E4F0E08081882F90E0CF91DF9108955D
:101660001F920F920FB60F9211242F933F934F9317
:101670005F936F937F938F939F93AF93BF93EF93FA
:10168000FF93DF93CF93CDB7DEB7E0911C02F091CB
:101690001D020995CF91DF91FF91EF91BF91AF911D
:1016A0009F918F917F916F915F914F913F912F917A
:1016B0000F900FBE0F901F9018951F920F920FB6AC
:1016C0000F9211242F933F934F935F936F937F93C8
:1016D0008F939F93AF93BF93EF93FF93DF93CF933A
:1016E000CDB7DEB7E0911E02F0911F020995CF91B0
:1016F000DF91FF91EF91BF91AF919F918F917F917A
:101700006F915F914F913F912F910F900FBE0F906E
:101710001F901895DF93CF9300D0CDB7DEB79A8393
:1017200089830F900F90CF91DF910895DF93CF932E
:10173000CDB7DEB7A3E5B0E0E3E5F0E080818064FB
:101740008C93A3E5B0E0E3E5F0E08081877F8C93A4
:10175000A3E5B0E0E3E5F0E08081887F8C93A3E52A
:10176000B0E0E3E5F0E0808181608C93E2E5F0E0B9
:101770001082ECE5F0E01082A9E5B0E0E9E5F0E0E8
:1017800080818E7F8C93A9E5B0E0E9E5F0E080816F
:101790008D7F8C93A8E5B0E0E8E5F0E08081816082
:1017A0008C93A8E5B0E0E8E5F0E0808182608C935E
:1017B000CF91DF910895DF93CF930F92CDB7DEB72E
:1017C0008983E2E5F0E0898180830F90CF91DF91FA
:1017D0000895DF93CF930F92CDB7DEB78983ECE501
:1017E000F0E0898180830F90CF91DF910895DF939E
:1017F000CF93CDB7DEB7A9E5B0E0E9E5F0E08081B1
:1018000081608C93CF91DF910895DF93CF93CDB713
:10181000DEB7A9E5B0E0E9E5F0E080818E7F8C934A
:10182000CF91DF910895DF93CF93CDB7DEB7A9E5D0
:10183000B0E0E9E5F0E0808182608C93CF91DF91A8
:101840000895DF93CF93CDB7DEB7A9E5B0E0E9E522
:10185000F0E080818D7F8C93CF91DF910895DF93AD
:10186000CF9300D0CDB7DEB79A83898389819A81DF
:1018700090932302809322020F900F90CF91DF91DB
:101880000895DF93CF9300D0CDB7DEB79A838983D5
:1018900089819A8190932102809320020F900F906A
:1018A000CF91DF9108951F920F920FB60F921124DE
:1018B0002F933F934F935F936F937F938F939F9358
:1018C000AF93BF93EF93FF93DF93CF93CDB7DEB783
:1018D0008091110290911202A0911302B091140212
:1018E0000196A11DB11D8093110290931202A09345
:1018F0001302B0931402E0912202F09123020995A1
:10190000CF91DF91FF91EF91BF91AF919F918F9117
:101910007F916F915F914F913F912F910F900FBEEB
:101920000F901F9018951F920F920FB60F921124CF
:101930002F933F934F935F936F937F938F939F93D7
:10194000AF93BF93EF93FF93DF93CF93CDB7DEB702
:101950008091150290911602A0911702B091180281
:101960000196A11DB11D8093150290931602A093BC
:101970001702B0931802209115023091160240917F
:1019800017025091180280910D0290910E02A091C1
:101990000F02B0911002281739074A075B0791F42C
:1019A00080910C02813071F410921502109216028F
:1019B0001092170210921802E0912002F091210279
:1019C000099509C080910C02882329F4E091200236
:1019D000F09121020995CF91DF91FF91EF91BF9195
:1019E000AF919F918F917F916F915F914F913F91B7
:1019F0002F910F900FBE0F901F901895DF93CF93EC
:101A000000D0CDB7DEB79A8389838AEF0E94E90BB5
:101A100081E080930C0289819A81880F991F880F39
:101A2000991FCC01A0E0B0E080930D0290930E02CC
:101A3000A0930F02B09310020F900F90CF91DF91FF
:101A40000895DF93CF93CDB7DEB7E2E5F0E0808174
:101A5000882F90E0CF91DF910895DF93CF93CDB79A
:101A6000DEB70E94960BA3E5B0E0E3E5F0E08081ED
:101A70008F7E8C93A3E5B0E0E3E5F0E080818062A7
:101A80008C93CF91DF910895DF93CF93CDB7DEB7DD
:101A9000EDE2F0E081E58083CF91DF910895DF935F
:101AA000CF930F92CDB7DEB78983EFE2F0E0898163
:101AB0008083EEE2F0E080818823DCF70F90CF9105
:101AC000DF910895DF93CF930F92CDB7DEB789836F
:101AD000EFE2F0E08981808382E0809325020F901D
:101AE000CF91DF910895DF93CF930F92CDB7DEB7FB
:101AF00080912502813021F419821092250212C0B2
:101B000080912502823019F481E089830BC0809195
:101B10002502833029F482E089831092250202C0D5
:101B200083E0898389810F90CF91DF910895DF93BE
:101B3000CF93CDB7DEB780912402CF91DF91089586
:101B4000DF93CF93CDB7DEB7EEE2F0E0808188235C
:101B5000DCF7EFE2F0E08081CF91DF910895DF9331
:101B6000CF930F92CDB7DEB789838981813041F45D
:101B7000ADE2B0E0EDE2F0E0808180688C9307C0D8
:101B8000ADE2B0E0EDE2F0E080818F778C930F90D2
:101B9000CF91DF9108951F920F920FB60F921124EB
:101BA0008F939F93EF93FF93DF93CF93CDB7DEB7E0
:101BB000EEE2F0E080818295869586958370882F8D
:101BC00090E081709070882321F083E0809325025B
:101BD00003C081E080932502EFE2F0E080818093F2
:101BE0002402CF91DF91FF91EF919F918F910F9000
:101BF0000FBE0F901F901895DF93CF93CDB7DEB730
:101C0000E6E5F0E01082E2E2F0E01082E0E2F0E0EF
:101C10001082E1E2F0E01082E2E2F0E084E0808312
:101C2000A1E2B0E0E1E2F0E080818E7F8C93A1E25E
:101C3000B0E0E1E2F0E080818D7F8C93E0E2F0E0C3
:101C400080E2808380E161E00E944E1381E161E0E7
:101C50000E944E13A6E5B0E0E6E5F0E080818E7FBD
:101C60008C93A6E5B0E0E6E5F0E0808184608C939B
:101C7000A6E5B0E0E6E5F0E0808180648C93CF914A
:101C8000DF910895DF93CF9300D000D000D0CDB77F
:101C9000DEB78B837D836C834E8319820E94DB0EBB
:101CA0000E94920F89838981883059F58B818E7FBC
:101CB0008B838B810E941F0F0E94920F89838981E1
:101CC0008831F9F41A8217C08A81282F30E08C817C
:101CD0009D81FC01E20FF31F80810E941F0F0E9473
:101CE000920F89838981883219F08981803349F480
:101CF0008A818F5F8A839A818E81981728F30E9448
:101D0000FC0E26960FB6F894DEBF0FBECDBFCF9166
:101D1000DF9108950F931F93DF93CF9300D000D0EE
:101D2000CDB7DEB79B838A836C83A6E5B0E0E6E59A
:101D3000F0E080818F7E8C93A6E5B0E0E6E5F0E0F0
:101D400080818F7D8C93A6E5B0E0E6E5F0E08081B0
:101D500080648C93A6E5B0E0E6E5F0E080818068E1
:101D60008C93E6E5F0E080818823DCF719820FC0D0
:101D70008981282F30E08A819B818C01020F131FFB
:101D80000E94400FF801808389818F5F8983998148
:101D90008C81981768F3A6E5B0E0E6E5F0E0808175
:101DA00080688C930F900F900F900F90CF91DF91E0
:101DB0001F910F910895DF93CF93CDB7DEB7A6E5BE
:101DC000B0E0E6E5F0E080818F7E8C93A6E5B0E0A0
:101DD000E6E5F0E0808180628C93A6E5B0E0E6E580
:101DE000F0E0808180688C93E6E5F0E080818823D4
:101DF000DCF7CF91DF910895DF93CF93CDB7DEB7B6
:101E0000A6E5B0E0E6E5F0E0808184608C93A6E58D
:101E1000B0E0E6E5F0E0808180618C93A6E5B0E07B
:101E2000E6E5F0E080818F7D8C93A6E5B0E0E6E505
:101E3000F0E0808180688C93CF91DF910895DF93EB
:101E4000CF930F92CDB7DEB78983E3E2F0E08981CB
:101E50008083A6E5B0E0E6E5F0E0808184608C93C5
:101E6000A6E5B0E0E6E5F0E0808180688C93E6E5E9
:101E7000F0E080818823DCF70F90CF91DF91089507
:101E8000DF93CF930F92CDB7DEB71982A6E5B0E00E
:101E9000E6E5F0E0808184608C93A6E5B0E0E6E5BD
:101EA000F0E0808180648C93A6E5B0E0E6E5F0E0A8
:101EB000808180688C93E6E5F0E080818823DCF700
:101EC000E3E2F0E08081898389810F90CF91DF91F7
:101ED0000895DF93CF930F92CDB7DEB71982A6E5B1
:101EE000B0E0E6E5F0E0808184608C93A6E5B0E0A8
:101EF000E6E5F0E080818F7B8C93A6E5B0E0E6E537
:101F0000F0E0808180688C93E6E5F0E080818823B2
:101F1000DCF7E3E2F0E08081898389810F90CF9143
:101F2000DF910895DF93CF930F92CDB7DEB719827B
:101F3000E1E2F0E08081887F898389810F90CF91F1
:101F4000DF910895DF93CF93CDB7DEB7AFE5B0E073
:101F5000EFE5F0E0808180688C93CF91DF91089568
:101F6000DF93CF93CDB7DEB7AFE5B0E0EFE5F0E0BC
:101F700080818F778C93CF91DF910895DF93CF93FA
:101F8000CDB7DEB7A4E5B0E0E4E5F0E080818064A1
:101F90008C93ABE5B0E0EBE5F0E080818F7D8C9336
:101FA000AAE5B0E0EAE5F0E0808180628C93CF9111
:101FB000DF910895DF93CF93CDB7DEB7ABE5B0E007
:101FC000EBE5F0E0808180628C93CF91DF91089502
:101FD000DF93CF93CDB7DEB7ABE5B0E0EBE5F0E054
:101FE00080818F7D8C93CF91DF910895DF93CF9384
:101FF00000D0CDB7DEB79A83898389819A81909387
:102000002702809326020F900F90CF91DF910895C1
:102010001F920F920FB60F9211242F933F934F935D
:102020005F936F937F938F939F93AF93BF93EF9340
:10203000FF93DF93CF93CDB7DEB7E0912602F09107
:1020400027020995CF91DF91FF91EF91BF91AF9159
:102050009F918F917F916F915F914F913F912F91C0
:102060000F900FBE0F901F901895DF93CF93CDB7B1
:10207000DEB7A5E5B0E0E5E5F0E080818B7F8C93ED
:10208000A5E5B0E0E5E5F0E08081877F8C93ABE5E6
:10209000B0E0EBE5F0E080818F778C93AAE5B0E0CB
:1020A000EAE5F0E0808180688C93CF91DF9108951C
:1020B000DF93CF93CDB7DEB7ABE5B0E0EBE5F0E073
:1020C000808180688C93CF91DF910895DF93CF93C7
:1020D000CDB7DEB7ABE5B0E0EBE5F0E080818F7720
:1020E0008C93CF91DF910895DF93CF9300D0CDB73C
:1020F000DEB79A83898389819A819093290280939C
:1021000028020F900F90CF91DF910895DF93CF9326
:1021100000D00F92CDB7DEB789838981282F30E0B8
:102120003B832A838A819B818A30910531F02A8101
:102130003B812F30310581F01DC0A5E5B0E0E5E51C
:10214000F0E080818B7F8C93A5E5B0E0E5E5F0E0E1
:10215000808188608C930EC0A5E5B0E0E5E5F0E0F5
:10216000808184608C93A5E5B0E0E5E5F0E08081B6
:1021700088608C930F900F900F90CF91DF9108950E
:102180001F920F920FB60F9211242F933F934F93EC
:102190005F936F937F938F939F93AF93BF93EF93CF
:1021A000FF93DF93CF93CDB7DEB7E0912802F09194
:1021B00029020995CF91DF91FF91EF91BF91AF91E6
:1021C0009F918F917F916F915F914F913F912F914F
:1021D0000F900FBE0F901F901895DF93CF93CDB740
:1021E000DEB7A5E5B0E0E5E5F0E080818E7F8C9379
:1021F000A5E5B0E0E5E5F0E080818D7F8C93ABE56F
:10220000B0E0EBE5F0E080818F7B8C93AAE5B0E055
:10221000EAE5F0E0808180648C93CF91DF910895AE
:10222000DF93CF93CDB7DEB7ABE5B0E0EBE5F0E001
:10223000808180648C93CF91DF910895DF93CF9359
:10224000CDB7DEB7ABE5B0E0EBE5F0E080818F7BAA
:102250008C93CF91DF910895DF93CF9300D0CDB7CA
:10226000DEB79A83898389819A8190932B02809328
:102270002A020F900F90CF91DF910895DF93CF93B3
:1022800000D00F92CDB7DEB789838981282F30E047
:102290003B832A838A819B818A30910531F02A8190
:1022A0003B812F30310581F01DC0A5E5B0E0E5E5AB
:1022B000F0E080818E7F8C93A5E5B0E0E5E5F0E06D
:1022C000808182608C930EC0A5E5B0E0E5E5F0E08A
:1022D000808181608C93A5E5B0E0E5E5F0E0808148
:1022E00082608C930F900F900F90CF91DF910895A3
:1022F0001F920F920FB60F9211242F933F934F937B
:102300005F936F937F938F939F93AF93BF93EF935D
:10231000FF93DF93CF93CDB7DEB7E0912A02F09120
:102320002B020995CF91DF91FF91EF91BF91AF9172
:102330009F918F917F916F915F914F913F912F91DD
:102340000F900FBE0F901F901895DF93CF93CDB7CE
:10235000DEB7EAE3F0E08EEF8083E7E3F0E087EBBF
:102360008083E4E3F0E08FEB8083E1E3F0E081EF52
:102370008083CF91DF910895DF93CF9300D000D079
:102380000F92CDB7DEB78A836B8319828B81282F9A
:1023900030E03D832C838C819D81009709F477C0C8
:1023A0002C813D812130310509F0E6C08A818830D9
:1023B000A0F4ABE3B0E0EBE3F0E08081482F8A814A
:1023C000282F30E081E090E0022E02C0880F991F94
:1023D0000A94E2F7842B8C93D1C08A818830D0F0A4
:1023E0008A818031B8F4A8E3B0E0E8E3F0E08081CE
:1023F000482F8A81882F90E09C012770307081E0FF
:1024000090E0022E02C0880F991F0A94E2F7842BF5
:102410008C93B4C08A818031D0F08A818831B8F43D
:10242000A5E3B0E0E5E3F0E08081482F8A81882FC2
:1024300090E09C012770307081E090E0022E02C095
:10244000880F991F0A94E2F7842B8C9397C08A8196
:102450008831D0F08A818032B8F4A2E3B0E0E2E3C0
:10246000F0E08081482F8A81882F90E09C012770BE
:10247000307081E090E0022E02C0880F991F0A940C
:10248000E2F7842B8C937AC082E0898377C08A81BB
:102490008830A8F4ABE3B0E0EBE3F0E08081482FB4
:1024A0008A81282F30E081E090E0022E02C0880F60
:1024B000991F0A94E2F7809584238C935FC08A81E8
:1024C0008830D8F08A818031C0F4A8E3B0E0E8E336
:1024D000F0E08081482F8A81882F90E09C0127704E
:1024E000307081E090E0022E02C0880F991F0A949C
:1024F000E2F7809584238C9341C08A818031D8F0A3
:102500008A818831C0F4A5E3B0E0E5E3F0E08081A2
:10251000482F8A81882F90E09C012770307081E0DD
:1025200090E0022E02C0880F991F0A94E2F780956E
:1025300084238C9323C08A818831D8F08A818032A9
:10254000C0F4A2E3B0E0E2E3F0E08081482F8A81AA
:10255000882F90E09C012770307081E090E0022E7F
:1025600002C0880F991F0A94E2F7809584238C9308
:1025700005C082E0898302C082E0898389810F904F
:102580000F900F900F900F90CF91DF910895DF93F0
:10259000CF9300D000D0CDB7DEB78A837C836B8326
:1025A00019828B819C81009709F46EC08A818830E2
:1025B000A0F4E9E3F0E08081282F30E08A81882FC1
:1025C00090E0A90102C0559547958A95E2F7CA01A6
:1025D0008170EB81FC81808359C08A818830C8F08A
:1025E0008A818031B0F4E6E3F0E08081282F30E08A
:1025F0008A81882F90E087709070A90102C055955C
:1026000047958A95E2F7CA018170EB81FC8180834E
:102610003DC08A818031C8F08A818831B0F4E3E31B
:10262000F0E08081282F30E08A81882F90E0877049
:102630009070A90102C0559547958A95E2F7CA01A5
:102640008170EB81FC81808321C08A818831C8F050
:102650008A818032B0F4E0E3F0E08081282F30E01E
:102660008A81882F90E087709070A90102C05595EB
:1026700047958A95E2F7CA018170EB81FC818083DE
:1026800005C082E0898302C083E0898389810F903D
:102690000F900F900F90CF91DF910895DF93CF931C
:1026A00000D0CDB7DEB789836A8389816A810E94B1
:1026B000BC110F900F90CF91DF9108950F931F934E
:1026C000DF93CF9300D000D00F92CDB7DEB79C83BD
:1026D0008B836D831A828B819C81009709F43FC0A4
:1026E0008D818132C8F5198232C08981282F30E06E
:1026F000C901880F991F280F391F8B819C818C017C
:10270000020F131F8981282F30E0C901880F991FFC
:10271000280F391F8B819C81FC01E20FF31F408140
:102720008981282F30E0C901880F991F280F391F90
:102730008B819C81FC01E20FF31F9181842F692F13
:102740000E94BC11F801828389818F5F89839981FE
:102750008D81981750F205C082E08A8302C083E021
:102760008A838A810F900F900F900F900F90CF91D6
:10277000DF911F910F9108950F931F93DF93CF93D4
:1027800000D000D00F92CDB7DEB79C838B836D83D2
:102790001A828B819C81009709F440C08D8181321F
:1027A000D0F5198233C08981282F30E0C901880F04
:1027B000991F280F391F8B819C818C01020F131FD9
:1027C0008981282F30E0C901880F991F280F391FF0
:1027D0008B819C81FC01E20FF31F40818981282FAE
:1027E00030E0C901880F991F280F391F8B819C8108
:1027F000820F931F9C012F5F3F4F842FB9010E94CE
:10280000C712F801828389818F5F898399818D81C5
:10281000981748F205C082E08A8302C083E08A8369
:102820008A810F900F900F900F900F90CF91DF91B2
:102830001F910F910895DF93CF9300D000D00F9296
:10284000CDB7DEB78A836B8319828B81282F30E066
:102850003D832C838C819D81009709F477C02C8166
:102860003D812130310509F0E6C08A818830A0F42D
:10287000AAE3B0E0EAE3F0E08081482F8A81282FC4
:1028800030E081E090E0022E02C0880F991F0A9488
:10289000E2F7842B8C93D1C08A818830D0F08A8172
:1028A0008031B8F4A7E3B0E0E7E3F0E08081482F9F
:1028B0008A81882F90E09C012770307081E090E041
:1028C000022E02C0880F991F0A94E2F7842B8C9382
:1028D000B4C08A818031D0F08A818831B8F4A4E311
:1028E000B0E0E4E3F0E08081482F8A81882F90E017
:1028F0009C012770307081E090E0022E02C0880FAA
:10290000991F0A94E2F7842B8C9397C08A818831AF
:10291000D0F08A818032B8F4A1E3B0E0E1E3F0E0E6
:102920008081482F8A81882F90E09C012770307029
:1029300081E090E0022E02C0880F991F0A94E2F70E
:10294000842B8C937AC082E0898377C08A81883017
:10295000A8F4AAE3B0E0EAE3F0E08081482F8A819E
:10296000282F30E081E090E0022E02C0880F991FEE
:102970000A94E2F7809584238C935FC08A81883023
:10298000D8F08A818031C0F4A7E3B0E0E7E3F0E05B
:102990008081482F8A81882F90E09C0127703070B9
:1029A00081E090E0022E02C0880F991F0A94E2F79E
:1029B000809584238C9341C08A818031D8F08A81AC
:1029C0008831C0F4A4E3B0E0E4E3F0E08081482F74
:1029D0008A81882F90E09C012770307081E090E020
:1029E000022E02C0880F991F0A94E2F78095842373
:1029F0008C9323C08A818831D8F08A818032C0F4D8
:102A0000A1E3B0E0E1E3F0E08081482F8A81882FE4
:102A100090E09C012770307081E090E0022E02C0AF
:102A2000880F991F0A94E2F7809584238C9305C040
:102A300082E0898302C082E0898389810F900F90B0
:102A40000F900F900F90CF91DF910895DF93CF9368
:102A500000D000D00F92CDB7DEB78B8319829E01D4
:102A60002E5F3F4F8B81B9010E94C71289838981F4
:102A70008823E1F48A81282F30E03D832C838C81E8
:102A80009D81009759F02C813D812130310561F401
:102A90008B8160E00E94BC11898308C08B8161E05A
:102AA0000E94BC11898302C084E0898389810F90D0
:102AB0000F900F900F900F90CF91DF910895DF93BB
:102AC000CF93CDB7DEB7A7E2B0E0E7E2F0E08081D8
:102AD0008F778C93A7E2B0E0E7E2F0E0808180643A
:102AE0008C93A7E2B0E0E7E2F0E080818F7D8C93E9
:102AF000A7E2B0E0E7E2F0E080818C93A6E2B0E0EC
:102B0000E6E2F0E0808180628C93A0E5B0E0E0E551
:102B1000F0E080818C93A6E2B0E0E6E2F0E0808114
:102B200081608C938BEB96E190932D0280932C0225
:102B3000A6E2B0E0E6E2F0E08081877F8C93A6E237
:102B4000B0E0E6E2F0E0808180618C93CF91DF918C
:102B50000895DF93CF93CDB7DEB7A6E2B0E0E6E20B
:102B6000F0E0808180688C93CF91DF910895DF93AE
:102B7000CF93CDB7DEB7A6E2B0E0E6E2F0E0808129
:102B80008F778C93CF91DF910895DF93CF93CDB75B
:102B9000DEB7A6E2B0E0E6E2F0E0808188608C93E8
:102BA000CF91DF910895DF93CF93CDB7DEB7A6E243
:102BB000B0E0E6E2F0E08081877F8C93CF91DF91F7
:102BC0000895DF93CF9300D0CDB7DEB79A83898382
:102BD00089819A8190932D0280932C020F900F90FF
:102BE000CF91DF910895DF93CF9300D0CDB7DEB7BB
:102BF000A6E2B0E0E6E2F0E0808180648C93E6E259
:102C0000F0E0808182958F70882F90E081709070C5
:102C10000097A9F3E4E2F0E08081282F30E0E5E2BC
:102C2000F0E08081882F90E0982F8827822B932BCB
:102C30009A838983A6E2B0E0E6E2F0E080818061D9
:102C40008C9389819A810F900F90CF91DF91089595
:102C5000DF93CF93CDB7DEB7A6E2B0E0E6E2F0E0D7
:102C6000808180648C93CF91DF910895DF93CF931F
:102C7000CDB7DEB780912E0290912F02CF91DF91D8
:102C80000895DF93CF9300D000D000D0CDB7DEB74A
:102C90009E838D838D819E81CC01A0E0B0E0BC013C
:102CA000CD010E940705DC01CB01BC01CD0120E074
:102CB00030E040EA50E40E941F02DC01CB01BC017D
:102CC000CD0120E030EC4FE754E40E941903DC0111
:102CD000CB0189839A83AB83BC8389819A81AB8141
:102CE000BC81BC01CD0126960FB6F894DEBF0FBEA5
:102CF000CDBFCF91DF9108951F920F920FB60F9223
:102D000011242F933F934F935F936F937F938F93F0
:102D10009F93AF93BF93EF93FF93DF93CF93CDB781
:102D2000DEB7E5E2F0E08081882F90E0382F22279F
:102D3000E4E2F0E08081882F90E0822B932B909347
:102D40002F0280932E02E0912C02F0912D02099522
:102D5000CF91DF91FF91EF91BF91AF919F918F91B3
:102D60007F916F915F914F913F912F910F900FBE87
:102D70000F901F901895DF93CF93CDB7DEB7CF910B
:102D8000DF910895DF93CF9300D00F92CDB7DEB7D8
:102D90008A836B8319828A818230E0F48B818A3046
:102DA000B0F48A81282F30E0C901880F991F880F5D
:102DB000991F880F991F820F931FFC01E956FE4F40
:102DC00090818A816B81492F0E941A1805C082E088
:102DD000898302C082E0898389810F900F900F90D0
:102DE000CF91DF910895DF93CF9300D000D0CDB77E
:102DF000DEB78A836B834C8319828B81823020F00B
:102E00008A81823008F03EC08C818436C0F58C8186
:102E10009AE0692F0E943F39482F8A81282F30E09D
:102E2000C901880F991F880F991F880F991F820F5A
:102E3000931FFC01E956FE4F90818A81642F492F30
:102E40000E941A188C819AE0692F0E943F39892FBD
:102E5000482F8B81282F30E0C901880F991F880FD8
:102E6000991F880F991F820F931FFC01E956FE4F8F
:102E700090818B81642F492F0E941A1805C082E02F
:102E8000898302C082E0898389810F900F900F901F
:102E90000F90CF91DF910895DF93CF9300D000D0B2
:102EA0000F92CDB7DEB78A836B8319828A81823015
:102EB00008F0B5C08B81282F30E03D832C838C81B6
:102EC0009D81009709F457C02C813D812130310547
:102ED00009F0A2C08A81282F30E0C901880F991F0C
:102EE000880F991F880F991F820F931FFC01E956C5
:102EF000FE4F80818823A9F48A81282F30E0C90100
:102F0000880F991F880F991F880F991F820F931F91
:102F1000FC01EA56FE4F808161E00E94BC1189836A
:102F200080C08A81282F30E0C901880F991F880F3F
:102F3000991F880F991F820F931FFC01E956FE4FBE
:102F400080818130A9F48A81282F30E0C901880F5F
:102F5000991F880F991F880F991F820F931FFC01DB
:102F6000EA56FE4F808160E00E94BC11898359C0FF
:102F700084E0898356C08A81282F30E0C901880FF8
:102F8000991F880F991F880F991F820F931FFC01AB
:102F9000E956FE4F80818823A9F48A81282F30E0EA
:102FA000C901880F991F880F991F880F991F820FD9
:102FB000931FFC01EA56FE4F808160E00E94BC1125
:102FC00089832FC08A81282F30E0C901880F991F7B
:102FD000880F991F880F991F820F931FFC01E956D4
:102FE000FE4F80818130A9F48A81282F30E0C90109
:102FF000880F991F880F991F880F991F820F931FA1
:10300000FC01EA56FE4F808161E00E94BC11898379
:1030100008C084E0898305C082E0898302C082E021
:10302000898389810F900F900F900F900F90CF910F
:10303000DF910895DF93CF93CDB7DEB761970FB6D9
:10304000F894DEBF0FBECDBF89836A834B838B812B
:10305000813009F0DBC08981282F30E0C901880F59
:10306000991F880F991F880F991F820F931FFC01CA
:10307000E157FE4F20818A81882F90E0FC01EB57B9
:10308000FE4F80818170982F822F692F0E94BC1182
:103090008981282F30E0C901880F991F880F991F57
:1030A000880F991F820F931FFC01E057FE4F20816C
:1030B0008A81882F90E0FC01EB57FE4F8081869536
:1030C0008170982F822F692F0E94BC118981282F2F
:1030D00030E0C901880F991F880F991F880F991F29
:1030E000820F931FFC01EF56FE4F20818A81882FAB
:1030F00090E0FC01EB57FE4F8081869586958170AC
:10310000982F822F692F0E94BC118981282F30E0CF
:10311000C901880F991F880F991F880F991F820F67
:10312000931FFC01EE56FE4F20818A81882F90E08C
:10313000FC01EB57FE4F80818695869586958170C0
:10314000982F822F692F0E94BC118981282F30E08F
:10315000C901880F991F880F991F880F991F820F27
:10316000931FFC01ED56FE4F20818A81882F90E04D
:10317000FC01EB57FE4F808182958F708170982FF4
:10318000822F692F0E94BC118981282F30E0C9014C
:10319000880F991F880F991F880F991F820F931FFF
:1031A000FC01EC56FE4F20818A81882F90E0FC01C3
:1031B000EB57FE4F80818295869587708170982F9E
:1031C000822F692F0E94BC118981282F30E0C9010C
:1031D000880F991F880F991F880F991F820F931FBF
:1031E000FC01EB56FE4F20818A81882F90E0FC0184
:1031F000EB57FE4F8081829586958695837081700E
:10320000982F822F692F0E94BC1101C18B818823C6
:1032100009F0FDC08981282F30E0C901880F991F6E
:10322000880F991F880F991F820F931FFC01E15788
:10323000FE4F8081898B8A81882F90E0FC01EB57BB
:10324000FE4F80818170188A882311F481E0888B79
:10325000898968890E94BC118981282F30E0C901C1
:10326000880F991F880F991F880F991F820F931F2E
:10327000FC01E057FE4F80818F878A81882F90E084
:10328000FC01EB57FE4F8081869581701E86882356
:1032900011F481E08E878F856E850E94BC11898133
:1032A000282F30E0C901880F991F880F991F880FB8
:1032B000991F820F931FFC01EF56FE4F80818D876F
:1032C0008A81882F90E0FC01EB57FE4F8081869524
:1032D000869581701C86882311F481E08C878D850A
:1032E0006C850E94BC118981282F30E0C901880FAC
:1032F000991F880F991F880F991F820F931FFC0138
:10330000EE56FE4F80818B878A81882F90E0FC01EA
:10331000EB57FE4F808186958695869581701A863B
:10332000882311F481E08A878B856A850E94BC110D
:103330008981282F30E0C901880F991F880F991FB4
:10334000880F991F820F931FFC01ED56FE4F80815D
:1033500089878A81882F90E0FC01EB57FE4F80819E
:1033600082958F7081701886882311F481E0888798
:10337000898568850E94BC118981282F30E0C901A8
:10338000880F991F880F991F880F991F820F931F0D
:10339000FC01EC56FE4F80818F838A81882F90E05C
:1033A000FC01EB57FE4F8081829586958770817076
:1033B0001E82882311F481E08E838F816E810E94AA
:1033C000BC118981282F30E0C901880F991F880F0F
:1033D000991F880F991F820F931FFC01EB56FE4F18
:1033E00080818D838A81882F90E0FC01EB57FE4F0E
:1033F0008081829586958695837081701C82882352
:1034000011F481E08C838D816C810E94BC116196E6
:103410000FB6F894DEBF0FBECDBFCF91DF910895F8
:10342000DF93CF9300D00F92CDB7DEB719828FC054
:103430008981282F30E0C901880F991F880F991FB3
:10344000820F931FFC01EF55FE4F8081282F30E043
:103450003B832A838A819B818130910509F445C091
:103460002A813B812230310509F05FC08981282FF4
:1034700030E0C901880F991F880F991F820F931F91
:10348000FC01ED55FE4F80818032F8F48981282FB0
:1034900030E0C901880F991F880F991F820F931F71
:1034A000FC01EC55FE4F8081803278F48981282F11
:1034B00030E0C901880F991F880F991F820F931F51
:1034C000FC01EB55FE4F10823FC08981282F30E070
:1034D000C901880F991F880F991F820F931FFC0144
:1034E000EB55FE4F82E080832FC08981282F30E08A
:1034F000C901880F991F880F991F820F931FFC0124
:10350000EC55FE4F80818032F8F08981282F30E021
:10351000C901880F991F880F991F820F931FFC0103
:10352000EB55FE4F82E080830FC08981282F30E069
:10353000C901880F991F880F991F820F931FFC01E3
:10354000EB55FE4F84E0808389818F5F8983898179
:10355000823008F46DCF0F900F900F90CF91DF91D4
:103560000895DF93CF9300D000D00F92CDB7DEB790
:103570008A836B8319828B81282F30E03D832C83D3
:103580008C819D818535910531F02C813D812636D8
:10359000310571F15AC08A81282F30E0C901880FA6
:1035A000991F880F991F820F931FFC01EE55FE4F44
:1035B0008081853129F48A816B810E94301B47C04C
:1035C0008A81282F30E0C901880F991F880F991F21
:1035D000820F931FFC01EE55FE4F80818F3F29F42F
:1035E0008A816B810E94D21B32C084E089832FC004
:1035F0008A81282F30E0C901880F991F880F991FF1
:10360000820F931FFC01EE55FE4F8081853129F416
:103610008A816B810E94D21B1AC08A81282F30E0D8
:10362000C901880F991F880F991F820F931FFC01F2
:10363000EE55FE4F80818F3F29F48A816B810E9475
:10364000301B05C084E0898302C084E089838981BE
:103650000F900F900F900F900F90CF91DF910895E2
:10366000DF93CF9300D000D0CDB7DEB789836A83D4
:103670008981282F30E0C901880F991F880F991F71
:10368000820F931FFC01EF55FE4F8081282F30E001
:103690003C832B838B819C818130910549F12B8167
:1036A0003C812230310509F076C08981282F30E035
:1036B000C901880F991F880F991F820F931FFC0162
:1036C000ED55FE4F808161E00E94BC118981282F59
:1036D00030E0C901880F991F880F991F820F931F2F
:1036E000FC01EC55FE4F808160E00E94BC1153C08C
:1036F0008981282F30E0C901880F991F880F991FF1
:10370000820F931FFC01ED55FE4F80818A3C91F49E
:103710008981282F30E0C901880F991F880F991FD0
:10372000820F931FFC01EC55FE4F808160E00E94E8
:10373000BC1131C08981282F30E0C901880F991F41
:10374000880F991F820F931FFC01ED55FE4F80815A
:10375000853C91F48981282F30E0C901880F991F99
:10376000880F991F820F931FFC01EC55FE4F80813B
:1037700061E00E94BC110FC08981282F30E0C9018F
:10378000880F991F880F991F820F931FFC01EB551B
:10379000FE4F84E080830F900F900F900F90CF9199
:1037A000DF910895DF93CF9300D000D0CDB7DEB77F
:1037B00089836A838981282F30E0C901880F991F86
:1037C000880F991F820F931FFC01EF55FE4F8081D8
:1037D000282F30E03C832B838B819C8181309105A5
:1037E00049F12B813C812230310509F076C0898175
:1037F000282F30E0C901880F991F880F991F820F69
:10380000931FFC01ED55FE4F808160E00E94BC11CA
:103810008981282F30E0C901880F991F880F991FCF
:10382000820F931FFC01EC55FE4F808160E00E94E7
:10383000BC1153C08981282F30E0C901880F991F1E
:10384000880F991F820F931FFC01ED55FE4F808159
:103850008A3C91F48981282F30E0C901880F991F93
:10386000880F991F820F931FFC01EC55FE4F80813A
:1038700061E00E94BC1131C08981282F30E0C9016C
:10388000880F991F880F991F820F931FFC01ED5518
:10389000FE4F8081853C91F48981282F30E0C90159
:1038A000880F991F880F991F820F931FFC01EC55F9
:1038B000FE4F808160E00E94BC110FC08981282FDB
:1038C00030E0C901880F991F880F991F820F931F3D
:1038D000FC01EB55FE4F84E080830F900F900F901A
:1038E0000F90CF91DF910895DF93CF930F92CDB7D3
:1038F000DEB789838981809330028981282F30E067
:10390000C901880F991F880F991F880F991F821B63
:10391000930BFC01E455FE4F8081863669F40E94CA
:10392000A5110E94A9150E945F150E94EA1E80E061
:1039300061E00E944E1316C00E94A5110E94B00FB4
:103940000E94A9150E945F150E94EA1E81EF9CE16A
:103950000E94E11580E061E00E944E130E94C515AF
:103960000E94A20F0F90CF91DF910895DF93CF9324
:1039700000D000D00F92CDB7DEB78D838D81282F78
:1039800030E0C901880F991F880F991F880F991F70
:10399000821B930BFC01E455FE4F8081863651F467
:1039A0008D810E94881DDC01CB0189839A83AB83C2
:1039B000BC8309C08D810E94D31DDC01CB018983AA
:1039C0009A83AB83BC8389819A81AB81BC81BC0122
:1039D000CD010F900F900F900F900F90CF91DF912E
:1039E00008950F931F93DF93CF93CDB7DEB78091E8
:1039F0003002282F30E0C901880F991F880F991FC6
:103A0000880F991F821B930BFC01E455FE4F8081A8
:103A1000863651F580913002082F10E080913002F7
:103A2000282F30E0C901880F991F880F991F880F30
:103A3000991F821B930BFC01E555FE4F80810E946C
:103A4000881D9B01AC01C801880F991F880F991F21
:103A5000880F991F801B910BFC01E355FE4F2083BB
:103A60003183428353834FC080913002282F30E04E
:103A7000C901880F991F880F991F880F991F821BF2
:103A8000930BFC01E455FE4F80818C3C51F58091F5
:103A90003002082F10E080913002282F30E0C90159
:103AA000880F991F880F991F880F991F821B930BEE
:103AB000FC01E555FE4F80810E94D31D9B01AC01A6
:103AC000C801880F991F880F991F880F991F801BA5
:103AD000910BFC01E355FE4F2083318342835383D6
:103AE00012C080913002282F30E0C901880F991F41
:103AF000880F991F880F991F821B930BFC01EF54AD
:103B0000FE4F84E08083CF91DF911F910F91089544
:103B1000DF93CF93CDB7DEB727970FB6F894DEBF0C
:103B20000FBECDBF8F8380E090E0A0E0B0E089833E
:103B30009A83AB83BC830E9428160E94F3159E8350
:103B40008D838D819E81CC01A0E0B0E0BC01CD01D0
:103B50000E940705DC01CB01BC01CD0120E030EC67
:103B60004FEF54E40E941903DC01CB01BC01CD01ED
:103B700020E030E04AE754E40E941F02DC01CB0160
:103B800089839A83AB83BC8389819A81AB81BC8111
:103B9000BC01CD0127960FB6F894DEBF0FBECDBF96
:103BA000CF91DF910895DF93CF93CDB7DEB72797FD
:103BB0000FB6F894DEBF0FBECDBF8F8380E090E0DC
:103BC000A0E0B0E089839A83AB83BC830E9428166F
:103BD0000E9436169E838D838D819E81CC01A0E04C
:103BE000B0E0BC01CD010E940705DC01CB01BC01A6
:103BF000CD0120E030EC4FEF54E40E941903DC01CA
:103C0000CB01BC01CD0120E030E04AE754E40E9442
:103C10001F02DC01CB0189839A83AB83BC8389813A
:103C20009A81AB81BC81BC01CD0127960FB6F89477
:103C3000DEBF0FBECDBFCF91DF910895DF93CF934D
:103C400000D000D00F92CDB7DEB78A836B83198284
:103C50008A81833008F07CC08B81282F30E03D833F
:103C60002C838C819D810097D9F12C813D8121305D
:103C7000310509F06AC08A81882F90E0880F991F6A
:103C8000FC01ED54FE4F80818A3A71F48A81882FBD
:103C900090E0880F991FFC01EE54FE4F808161E097
:103CA0000E94BC11898356C08A81882F90E0880FBA
:103CB000991FFC01ED54FE4F8081853571F48A8196
:103CC000882F90E0880F991FFC01EE54FE4F8081F1
:103CD00060E00E94BC1189833DC084E089833AC0C2
:103CE0008A81882F90E0880F991FFC01ED54FE4FC8
:103CF00080818A3A71F48A81882F90E0880F991F19
:103D0000FC01EE54FE4F808160E00E94BC1189836B
:103D100021C08A81882F90E0880F991FFC01ED5403
:103D2000FE4F8081853571F48A81882F90E0880F5D
:103D3000991FFC01EE54FE4F808161E00E94BC118E
:103D4000898308C084E0898305C082E0898302C03A
:103D500082E0898389810F900F900F900F900F90D0
:103D6000CF91DF910895DF93CF9300D0CDB7DEB729
:103D70008A8319828A81833068F48A81882F90E04F
:103D8000880F991FFC01EE54FE4F80810E9426157A
:103D9000898302C082E0898389810F900F90CF913F
:103DA000DF910895DF93CF9300D0CDB7DEB71982AE
:103DB0001A8207C08A8160E00E941E1E8A818F5F7E
:103DC0008A838A818330B0F389810F900F90CF91DD
:103DD000DF9108950F931F93DF93CF93CDB7DEB795
:103DE000C65CD0400FB6F894DEBF0FBECDBFFE015B
:103DF000EA53FF4F10820C94E429FE01EF53FF4F6A
:103E000080E090E0A0EFB1E480839183A283B3834C
:103E10008E0103541F4FFE01EF53FF4F60817181EC
:103E20008281938120E030E04AEF54E40E941F0237
:103E3000DC01CB01F80180839183A283B383FE016F
:103E4000E354FF4F608171818281938120E030E0F3
:103E500040E85FE30E942504882344F4FE01E55412
:103E6000FF4F81E090E09183808364C0FE01E354C2
:103E7000FF4F608171818281938120E03FEF4FE7A6
:103E800057E40E94C50318160CF043C0FE01EF531F
:103E9000FF4F608171818281938120E030E040E2B8
:103EA00051E40E941F02DC01CB018E0105541F4F1B
:103EB000BC01CD010E944900DC01CB01F8019183D6
:103EC00080831FC0FE01E754FF4F88EC90E0918390
:103ED0008083FE01E754FF4F808191810197F1F7C4
:103EE000FE01E754FF4F91838083DE01A554BF4F4D
:103EF000FE01E554FF4F80819181019711969C93BB
:103F00008E93FE01E554FF4F808191810097D1F699
:103F100028C08E0105541F4FFE01E354FF4F6081FE
:103F20007181828193810E944900DC01CB01F801FB
:103F300091838083DE01A954BF4FFE01E554FF4FFA
:103F40008081918111969C938E93FE01E954FF4FDD
:103F5000808191810197F1F7FE01E954FF4F918330
:103F60008083FE01EA53FF4F8081282F30E0C90192
:103F7000880F991F820F931F880F991F880F991F11
:103F8000FC01E854FE4F8081829586958770817090
:103F9000813009F0BFC3FE01EA53FF4F8081282F13
:103FA00030E0C901880F991F820F931F880F991F56
:103FB000880F991FFC01E854FE4F80818170882F83
:103FC00090E0880F991F880F991F880F991F482F1D
:103FD0004063FE01EA53FF4F8081282F30E0C90182
:103FE000880F991F820F931F880F991F880F991FA1
:103FF000FC01E854FE4F808186958170882F90E007
:10400000880F991F880F991F842BFE01EB53FF4FD8
:104010008083FE01EA53FF4FDE01AB53BF4F808127
:104020006C910E94F829FE01ED54FF4F80E090E072
:10403000A0E8BFE380839183A283B3838E010155FF
:104040001F4FFE01ED54FF4F60817181828193818A
:1040500020E030E04AEF54E40E941F02DC01CB0173
:10406000F80180839183A283B383FE01E155FF4F62
:10407000608171818281938120E030E040E85FE3DC
:104080000E942504882344F4FE01E355FF4F81E09C
:1040900090E09183808364C0FE01E155FF4F608111
:1040A00071818281938120E03FEF4FE757E40E94C6
:1040B000C50318160CF043C0FE01ED54FF4F60819C
:1040C00071818281938120E030E040E251E40E94DE
:1040D0001F02DC01CB018E0103551F4FBC01CD0136
:1040E0000E944900DC01CB01F801918380831FC04D
:1040F000FE01E555FF4F88EC90E091838083FE013F
:10410000E555FF4F808191810197F1F7FE01E5555B
:10411000FF4F91838083DE01A355BF4FFE01E3551E
:10412000FF4F80819181019711969C938E93FE01A0
:10413000E355FF4F808191810097D1F627C08E0112
:1041400003551F4FFE01E155FF4F60817181828150
:1041500093810E944900DC01CB01F80191838083A7
:10416000DE01A755BF4FFE01E355FF4F80819181CE
:104170008D939C93FE01E755FF4F808191810197BC
:10418000F1F7FE01E755FF4F91838083FE01EA536B
:10419000FF4F8081282F30E0C901880F991F820FBF
:1041A000931F880F991F880F991FFC01E854FE4F39
:1041B0008081869586958170882F90E0880F991F61
:1041C000880F991F482F4860FE01EA53FF4F8081F6
:1041D000282F30E0C901880F991F820F931F880F85
:1041E000991F880F991FFC01E854FE4F8081869526
:1041F000869586958170882F90E0880F991F482BAF
:10420000FE01EA53FF4F8081282F30E0C901880F5B
:10421000991F820F931F880F991F880F991FFC0108
:10422000E854FE4F808182958F708170842BFE014F
:10423000EB53FF4F8083FE01EA53FF4FDE01AB5388
:10424000BF4F80816C910E94F829FE01EB55FF4F12
:1042500080E090E0A0E8BFE380839183A283B383F2
:104260008E010F551F4FFE01EB55FF4F608171818D
:104270008281938120E030E04AEF54E40E941F02E3
:10428000DC01CB01F80180839183A283B383FE011B
:10429000EF55FF4F608171818281938120E030E092
:1042A00040E85FE30E942504882344F4FE01E156C0
:1042B000FF4F81E090E09183808364C0FE01EF5561
:1042C000FF4F608171818281938120E03FEF4FE752
:1042D00057E40E94C50318160CF043C0FE01EB55CD
:1042E000FF4F608171818281938120E030E040E264
:1042F00051E40E941F02DC01CB018E0101561F4FC9
:10430000BC01CD010E944900DC01CB01F801918381
:1043100080831FC0FE01E356FF4F88EC90E091833D
:104320008083FE01E356FF4F808191810197F1F771
:10433000FE01E356FF4F91838083DE01A156BF4FFC
:10434000FE01E156FF4F80819181019711969C9368
:104350008E93FE01E156FF4F808191810097D1F647
:1043600027C08E0101561F4FFE01EF55FF4F6081A0
:104370007181828193810E944900DC01CB01F801A7
:1043800091838083DE01A556BF4FFE01E156FF4FAA
:10439000808191818D939C93FE01E556FF4F808132
:1043A00091810197F1F7FE01E556FF4F91838083DC
:1043B000FE01EA53FF4F808161E00E94F829FE016F
:1043C000E956FF4F80E090E0A0E0B0E48083918365
:1043D000A283B3838E010D561F4FFE01E956FF4F96
:1043E000608171818281938120E030E04AEF54E462
:1043F0000E941F02DC01CB01F80180839183A2831C
:10440000B383FE01ED56FF4F6081718182819381FC
:1044100020E030E040E85FE30E942504882344F474
:10442000FE01EF56FF4F81E090E09183808364C0EE
:10443000FE01ED56FF4F608171818281938120E002
:104440003FEF4FE757E40E94C50318160CF043C036
:10445000FE01E956FF4F608171818281938120E0E6
:1044600030E040E251E40E941F02DC01CB018E01EA
:104470000F561F4FBC01CD010E944900DC01CB014A
:10448000F801918380831FC0FE01E157FF4F88EC44
:1044900090E091838083FE01E157FF4F80819181FD
:1044A0000197F1F7FE01E157FF4F91838083DE0111
:1044B000AF56BF4FFE01EF56FF4F808191810197AC
:1044C00011969C938E93FE01EF56FF4F8081918150
:1044D0000097D1F627C08E010F561F4FFE01ED56F3
:1044E000FF4F60817181828193810E944900DC01CC
:1044F000CB01F80191838083DE01A357BF4FFE01FA
:10450000EF56FF4F808191818D939C93FE01E3577D
:10451000FF4F808191810197F1F7FE01E357FF4F33
:1045200091838083FE01EA53FF4F8081282F30E082
:10453000C901880F991F820F931F880F991F880F39
:10454000991FFC01E854FE4F8081829586958695DF
:1045500083708170882F90E0880F991F482F4460E6
:10456000FE01EA53FF4F8081282F30E0C901880FF8
:10457000991F820F931F880F991F880F991FFC01A5
:10458000E854FE4F8081881F8827881F842BFE01F6
:10459000EB53FF4F8083FE01EA53FF4FDE01AB5325
:1045A000BF4F80816C910E94F829FE01E757FF4FB1
:1045B00080E090E0A0E0B0E480839183A283B383A5
:1045C0008E010B571F4FFE01E757FF4F608171812E
:1045D0008281938120E030E04AEF54E40E941F0280
:1045E000DC01CB01F80180839183A283B383FE01B8
:1045F000EB57FF4F608171818281938120E030E031
:1046000040E85FE30E942504882344F4FE01ED574F
:10461000FF4F81E090E09183808364C0FE01EB57FF
:10462000FF4F608171818281938120E03FEF4FE7EE
:1046300057E40E94C50318160CF043C0FE01E7576B
:10464000FF4F608171818281938120E030E040E200
:1046500051E40E941F02DC01CB018E010D571F4F58
:10466000BC01CD010E944900DC01CB01F80191831E
:1046700080831FC0FE01EF57FF4F88EC90E09183CD
:104680008083FE01EF57FF4F808191810197F1F701
:10469000FE01EF57FF4F91838083DE01AD57BF4F7F
:1046A000FE01ED57FF4F80819181019711969C93F8
:1046B0008E93FE01ED57FF4F808191810097D1F6D7
:1046C0007AC68E010D571F4FFE01EB57FF4F6081D9
:1046D0007181828193810E944900DC01CB01F80144
:1046E00091838083DE01A158BF4FFE01ED57FF4F3C
:1046F0008081918111969C938E93FE01E158FF4F2A
:10470000808191810197F1F7FE01E158FF4F91837C
:10471000808351C6FE01EA53FF4F808160E20E9410
:10472000F829FE01E558FF4F80E090E0A0E8BFE3E4
:1047300080839183A283B3838E0109581F4FFE01AA
:10474000E558FF4F608171818281938120E030E0E4
:104750004AEF54E40E941F02DC01CB01F801808380
:104760009183A283B383FE01E958FF4F6081718179
:104770008281938120E030E040E85FE30E942504DD
:10478000882344F4FE01EB58FF4F81E090E09183D1
:10479000808364C0FE01E958FF4F6081718182818E
:1047A000938120E03FEF4FE757E40E94C5031816BE
:1047B0000CF043C0FE01E558FF4F6081718182819A
:1047C000938120E030E040E251E40E941F02DC01CE
:1047D000CB018E010B581F4FBC01CD010E94490037
:1047E000DC01CB01F801918380831FC0FE01ED58ED
:1047F000FF4F88EC90E091838083FE01ED58FF4FDE
:10480000808191810197F1F7FE01ED58FF4F91836F
:104810008083DE01AB58BF4FFE01EB58FF4F808114
:104820009181019711969C938E93FE01EB58FF4F57
:10483000808191810097D1F627C08E010B581F4FC0
:10484000FE01E958FF4F60817181828193810E944E
:104850004900DC01CB01F80191838083DE01AF5870
:10486000BF4FFE01EB58FF4F808191818D939C9348
:10487000FE01EF58FF4F808191810197F1F7FE0112
:10488000EF58FF4F91838083FE01EA53FF4F8081F1
:1048900060E20E94F829FE01E359FF4F80E090E0BA
:1048A000A0E8BFE380839183A283B3838E0107597D
:1048B0001F4FFE01E359FF4F608171818281938117
:1048C00020E030E04AEF54E40E941F02DC01CB01FB
:1048D000F80180839183A283B383FE01E759FF4FE0
:1048E000608171818281938120E030E040E85FE364
:1048F0000E942504882344F4FE01E959FF4F81E01A
:1049000090E09183808364C0FE01E759FF4F60818E
:1049100071818281938120E03FEF4FE757E40E944D
:10492000C50318160CF043C0FE01E359FF4F608128
:1049300071818281938120E030E040E251E40E9465
:104940001F02DC01CB018E0109591F4FBC01CD01B3
:104950000E944900DC01CB01F801918380831FC0D4
:10496000FE01EB59FF4F88EC90E091838083FE01BC
:10497000EB59FF4F808191810197F1F7FE01EB59CF
:10498000FF4F91838083DE01A959BF4FFE01E95992
:10499000FF4F80819181019711969C938E93FE0128
:1049A000E959FF4F808191810097D1F627C08E0190
:1049B00009591F4FFE01E759FF4F608171818281C4
:1049C00093810E944900DC01CB01F801918380832F
:1049D000DE01AD59BF4FFE01E959FF4F8081918142
:1049E0008D939C93FE01ED59FF4F8081918101973A
:1049F000F1F7FE01ED59FF4F91838083FE01EA53E9
:104A0000FF4F8081282F30E0C901880F991F820F46
:104A1000931F880F991F880F991FFC01E854FE4FC0
:104A200080818170882F90E09695982F88279795A0
:104A30008795482FFE01EA53FF4F8081282F30E0F1
:104A4000C901880F991F820F931F880F991F880F24
:104A5000991FFC01E854FE4F808186958170882F54
:104A600090E00024969587950794969587950794EE
:104A7000982F802D842BFE01EB53FF4F8083FE0186
:104A8000EA53FF4FDE01AB53BF4F80816C910E9410
:104A9000F829FE01E15AFF4F80E090E0A0E8BFE373
:104AA00080839183A283B3838E01055A1F4FFE0139
:104AB000E15AFF4F608171818281938120E030E073
:104AC0004AEF54E40E941F02DC01CB01F80180830D
:104AD0009183A283B383FE01E55AFF4F6081718108
:104AE0008281938120E030E040E85FE30E9425046A
:104AF000882344F4FE01E75AFF4F81E090E0918360
:104B0000808364C0FE01E55AFF4F6081718182811C
:104B1000938120E03FEF4FE757E40E94C50318164A
:104B20000CF043C0FE01E15AFF4F60817181828128
:104B3000938120E030E040E251E40E941F02DC015A
:104B4000CB018E01075A1F4FBC01CD010E944900C5
:104B5000DC01CB01F801918380831FC0FE01E95A7B
:104B6000FF4F88EC90E091838083FE01E95AFF4F6C
:104B7000808191810197F1F7FE01E95AFF4F9183FE
:104B80008083DE01A75ABF4FFE01E75AFF4F8081A5
:104B90009181019711969C938E93FE01E75AFF4FE6
:104BA000808191810097D1F627C08E01075A1F4F4F
:104BB000FE01E55AFF4F60817181828193810E94DD
:104BC0004900DC01CB01F80191838083DE01AB5AFF
:104BD000BF4FFE01E75AFF4F808191818D939C93D7
:104BE000FE01EB5AFF4F808191810197F1F7FE01A1
:104BF000EB5AFF4F91838083FE01EA53FF4F808180
:104C000060E00E94F829FE01EF5AFF4F80E090E03B
:104C1000A0E8BFE380839183A283B3838E01035B0B
:104C20001F4FFE01EF5AFF4F608171818281938196
:104C300020E030E04AEF54E40E941F02DC01CB0187
:104C4000F80180839183A283B383FE01E35BFF4F6E
:104C5000608171818281938120E030E040E85FE3F0
:104C60000E942504882344F4FE01E55BFF4F81E0A8
:104C700090E09183808364C0FE01E35BFF4F60811D
:104C800071818281938120E03FEF4FE757E40E94DA
:104C9000C50318160CF043C0FE01EF5AFF4F6081A8
:104CA00071818281938120E030E040E251E40E94F2
:104CB0001F02DC01CB018E01055B1F4FBC01CD0142
:104CC0000E944900DC01CB01F801918380831FC061
:104CD000FE01E75BFF4F88EC90E091838083FE014B
:104CE000E75BFF4F808191810197F1F7FE01E75B60
:104CF000FF4F91838083DE01A55BBF4FFE01E55B23
:104D0000FF4F80819181019711969C938E93FE01B4
:104D1000E55BFF4F808191810097D1F627C08E011E
:104D2000055B1F4FFE01E35BFF4F60817181828154
:104D300093810E944900DC01CB01F80191838083BB
:104D4000DE01A95BBF4FFE01E55BFF4F80819181D2
:104D50008D939C93FE01E95BFF4F808191810197C8
:104D6000F1F7FE01E95BFF4F91838083FE01EA5377
:104D7000FF4F8081282F30E0C901880F991F820FD3
:104D8000931F880F991F880F991FFC01E854FE4F4D
:104D90008081869586958170882F90E00024969575
:104DA00087950794969587950794982F802D482F7F
:104DB0004068FE01EA53FF4F8081282F30E0C9018F
:104DC000880F991F820F931F880F991F880F991FB3
:104DD000FC01E854FE4F808186958695869581700A
:104DE000882F90E0880F991F82959295907F982741
:104DF000807F9827482BFE01EA53FF4F8081282FA0
:104E000030E0C901880F991F820F931F880F991FE7
:104E1000880F991FFC01E854FE4F808182958F70A6
:104E20008170882F90E082959295907F9827807F5F
:104E30009827842BFE01EB53FF4F8083FE01EA533A
:104E4000FF4FDE01AB53BF4F80816C910E94F82968
:104E5000FE01ED5BFF4F80E090E0A0E8BFE38083C0
:104E60009183A283B3838E01015C1F4FFE01ED5B32
:104E7000FF4F608171818281938120E030E04AEFB1
:104E800054E40E941F02DC01CB01F801808391836E
:104E9000A283B383FE01FF96608171818281938139
:104EA00020E030E040E85FE30E94250488232CF4F2
:104EB00081E090E09EAF8DAF46C0FE01FF9660811D
:104EC00071818281938120E03FEF4FE757E40E9498
:104ED000C503181664F5FE01ED5BFF4F608171811B
:104EE0008281938120E030E040E251E40E941F0281
:104EF000DC01CB01BC01CD010E944900DC01CB01EA
:104F00009EAF8DAF0FC088EC90E09CAF8BAF8BADA8
:104F10009CAD0197F1F79CAF8BAF8DAD9EAD019726
:104F20009EAF8DAF8DAD9EAD009769F716C0FE01A7
:104F3000FF9660817181828193810E944900DC012A
:104F4000CB019EAF8DAF8DAD9EAD9AAF89AF89ADD0
:104F50009AAD0197F1F79AAF89AFFE01EA53FF4F7F
:104F6000808160E00E94F82980E090E0A0E8BFE343
:104F70008DAB9EABAFABB8AF6DA97EA98FA998AD35
:104F800020E030E04AEF54E40E941F02DC01CB0134
:104F900089AB9AABABABBCAB69A97AA98BA99CA92D
:104FA00020E030E040E85FE30E94250488232CF4F1
:104FB00081E090E098AB8FA73FC069A97AA98BA93F
:104FC0009CA920E03FEF4FE757E40E94C503181665
:104FD0004CF56DA97EA98FA998AD20E030E040E2A4
:104FE00051E40E941F02DC01CB01BC01CD010E94F3
:104FF0004900DC01CB0198AB8FA70FC088EC90E093
:105000009EA78DA78DA59EA50197F1F79EA78DA7B9
:105010008FA598A9019798AB8FA78FA598A90097FE
:1050200069F714C069A97AA98BA99CA90E944900B3
:10503000DC01CB0198AB8FA78FA598A99CA78BA764
:105040008BA59CA50197F1F79CA78BA7FE01EA53BE
:10505000FF4F808160E10E94F82980E090E0A0E8A5
:10506000BFE38FA398A7A9A7BAA76FA178A589A521
:105070009AA520E030E04AEF54E40E941F02DC01D0
:10508000CB018BA39CA3ADA3BEA36BA17CA18DA1DF
:105090009EA120E030E040E85FE30E9425048823E1
:1050A0002CF481E090E09AA389A33FC06BA17CA17E
:1050B0008DA19EA120E03FEF4FE757E40E94C5037A
:1050C00018164CF56FA178A589A59AA520E030E0C7
:1050D00040E251E40E941F02DC01CB01BC01CD0182
:1050E0000E944900DC01CB019AA389A30FC088EC80
:1050F00090E098A38F8F8F8D98A10197F1F798A3D7
:105100008F8F89A19AA101979AA389A389A19AA1B6
:10511000009769F714C06BA17CA18DA19EA10E948C
:105120004900DC01CB019AA389A389A19AA19E8F92
:105130008D8F8D8D9E8D0197F1F79E8F8D8FFE0146
:10514000EA53FF4F808160E00E94F82980E090E000
:10515000A0E8BFE3898F9A8FAB8FBC8F698D7A8D62
:105160008B8D9C8D20E030E04AEF54E40E941F02BA
:10517000DC01CB018D8B9E8BAF8BB88F6D897E89C7
:105180008F89988D20E030E040E85FE30E9425049D
:1051900088232CF481E090E09C8B8B8B3FC06D8941
:1051A0007E898F89988D20E03FEF4FE757E40E947A
:1051B000C50318164CF5698D7A8D8B8D9C8D20E07A
:1051C00030E040E251E40E941F02DC01CB01BC014F
:1051D000CD010E944900DC01CB019C8B8B8B0FC061
:1051E00088EC90E09A8B898B89899A890197F1F7ED
:1051F0009A8B898B8B899C8901979C8B8B8B8B8954
:105200009C89009769F714C06D897E898F89988D74
:105210000E944900DC01CB019C8B8B8B8B899C8984
:10522000988B8F878F8598890197F1F7988B8F8757
:10523000FE01EA53FF4F8081282F30E0C901880F1B
:10524000991F820F931F880F991F880F991FFC01C8
:10525000E854FE4F80818295869586958370817093
:10526000882F90E0880F991F82959295907F9827BC
:10527000807F9827482F4064FE01EA53FF4F8081CA
:10528000282F30E0C901880F991F820F931F880FC4
:10529000991F880F991FFC01E854FE4F8081881FD9
:1052A0008827881F882F90E082959295907F982775
:1052B000807F9827842BFE01EB53FF4F8083FE01F4
:1052C000EA53FF4FDE01AB53BF4F80816C910E94C8
:1052D000F82980E090E0A0E8BFE38B879C87AD874A
:1052E000BE876B857C858D859E8520E030E04AEF0A
:1052F00054E40E941F02DC01CB018F839887A987A9
:10530000BA876F81788589859A8520E030E040E80A
:105310005FE30E94250488232CF481E090E09E83C3
:105320008D833FC06F81788589859A8520E03FEF26
:105330004FE757E40E94C50318164CF56B857C8532
:105340008D859E8520E030E040E251E40E941F02FE
:10535000DC01CB01BC01CD010E944900DC01CB0185
:105360009E838D830FC088EC90E09C838B838B8120
:105370009C810197F1F79C838B838D819E8101979E
:105380009E838D838D819E81009769F714C06F8104
:10539000788589859A850E944900DC01CB019E832E
:1053A0008D838D819E819A83898389819A810197DA
:1053B000F1F79A838983DE01AA53BF4FFE01EA53B6
:1053C000FF4F80818F5F8C93FE01EA53FF4F8081F6
:1053D000823010F40C94FD1ECA53DF4F0FB6F894C0
:1053E000DEBF0FBECDBFCF91DF911F910F9108950A
:1053F000DF93CF9300D00F92CDB7DEB78A836B8354
:1054000019828A818230C8F48A81282F30E0C9014C
:10541000880F991F820F931F880F991F880F991F5C
:10542000FC01E754FE4F808160E00E94BC118A813C
:105430006B810E94542A898302C082E0898389811A
:105440000F900F900F90CF91DF910895DF93CF933E
:1054500000D00F92CDB7DEB78A836B8319828A8121
:105460008230C8F48A81282F30E0C901880F991F43
:10547000820F931F880F991F880F991FFC01E75413
:10548000FE4F808161E00E94BC118A816B810E9485
:10549000542A898302C082E0898389810F900F900A
:1054A0000F90CF91DF910895DF93CF9300D000D07C
:1054B000CDB7DEB78B836C831A828B81282F30E0C7
:1054C000C901880F991F820F931F880F991F880F9A
:1054D000991FFC01E554FE4F808161E00E94BC11E0
:1054E0008B81282F30E0C901880F991F820F931FED
:1054F000880F991F0196880F991FFC01E854FE4FF1
:10550000808160E00E94BC118B81282F30E0C901AE
:10551000880F991F820F931F880F991F880F991F5B
:10552000FC01E854FE4F80818295869587708170DA
:10553000813089F519822BC08B81282F30E0898139
:10554000482F50E0C901880F991F820F931F880FC1
:10555000991F880F991F840F951FFC01E454FE4F7B
:1055600040818C81282F30E08981882F90E0B9011B
:1055700002C0759567958A95E2F7CB01982F9170D7
:10558000842F692F0E94BC1189818F5F8983898153
:10559000883090F24AC08B81282F30E0C901880FF3
:1055A000991F820F931F880F991F880F991FFC0165
:1055B000E854FE4F8081829586958770817088239C
:1055C00091F584E089832BC08B81282F30E089817D
:1055D000482F50E0C901880F991F820F931F880F31
:1055E000991F880F991F840F951FFC01E454FE4FEB
:1055F00040818C81282F30E08981882F90E0B9018B
:1056000002C0759567958A95E2F7CB01982F917046
:10561000842F692F0E94BC1189818F5F89838981C2
:10562000883090F202C084E08A838B81282F30E09A
:10563000C901880F991F820F931F880F991F880F28
:10564000991FFC01E554FE4F808160E00E94BC116F
:105650008A810F900F900F900F90CF91DF91089556
:10566000DF93CF9300D000D000D0CDB7DEB78B83CF
:105670007D836C834E831A82198210C08981282F02
:1056800030E08C819D81FC01E20FF31F90818B81C2
:10569000692F0E94262A89818F5F898399818E8153
:1056A000891760F78A8126960FB6F894DEBF0FBE81
:1056B000CDBFCF91DF9108950F931F93DF93CF93C9
:1056C000CDB7DEB7CF56D0400FB6F894DEBF0FBED1
:1056D000CDBFFE01E559FF4F8083FE01E459FF4F26
:1056E00040835183628373831E82FE01E459FF4F1E
:1056F000608171818281938120E030E040E050E060
:105700000E942504882394F5FE01E559FF4F80810E
:105710006DE20E94262AFE01E459FF4F60E070E02E
:1057200080E090E020813181428153810E94C1015B
:10573000DC01CB0189839A83AB83BC838E0104593E
:105740001F4FFE01E459FF4F60E070E080E090E001
:1057500020813181428153810E94C101DC01CB0152
:10576000F80180839183A283B3830BC0FE01E459C7
:10577000FF4F80819181A281B38189839A83AB831A
:10578000BC838E81082F10E069817A818B819C8196
:105790000E94B304DC01CB012AE030E0B9010E9491
:1057A0004B39282FCE010796FC01E00FF11F208313
:1057B0008E81482F50E08E81282F30E0CE01079651
:1057C000FC01E20FF31F8081282F205DCE01079698
:1057D000FC01E40FF51F208369817A818B819C8114
:1057E00020E030E040E251E40E941903DC01CB01EB
:1057F00089839A83AB83BC838E818F5F8E8369811B
:105800007A818B819C810E94B304DC01CB010097DB
:1058100009F0B7CF8E8181508D8315C08D81282FDF
:10582000332727FD3095CE010796FC01E20FF31FC9
:105830009081FE01E559FF4F8081692F0E94262A41
:105840008D8181508D838D81882344F7FE01E45939
:10585000FF4F60817181828193810E94B304DC01DA
:10586000CB01AA2797FDA095BA2FBC01CD010E94BC
:1058700055049B01AC01FE01E459FF4F6081718129
:10588000828193810E94C101DC01CB01BC01CD0169
:105890002FE632E143E85AE30E94C50318160CF0E4
:1058A00079C0FE01E559FF4F80816EE20E94262AF1
:1058B0001D826CC0FE01E459FF4F608171818281BD
:1058C00093810E94B304DC01CB01AA2797FDA09528
:1058D000BA2FBC01CD010E9455049B01AC018E0181
:1058E00004591F4FFE01E459FF4F6081718182818D
:1058F00093810E94C101DC01CB01F8018083918377
:10590000A283B3838E0104591F4FFE01E459FF4F58
:10591000608171818281938120E030E040E251E436
:105920000E941F02DC01CB01F80180839183A283D6
:10593000B383FE01E459FF4F6081718182819381BD
:105940000E94B304DC01CB01C096AA2797FDA09565
:10595000BA2FBC01CD010E945504DC01CB01898323
:105960009A83AB83BC8369817A818B819C810E94FD
:105970004900DC01CB01982FFE01E559FF4F8081E2
:10598000692F0E94262A8D818F5F8D838D818430BF
:105990000CF490CFC159DF4F0FB6F894DEBF0FBEA5
:1059A000CDBFCF91DF911F910F910895DF93CF93DA
:1059B00000D000D000D0CDB7DEB78B837D836C8361
:1059C0004E831A828B81823040F58E81893028F592
:1059D0008E81882F90E00896880F991F880F991F55
:1059E000880F991F982F8B81692F0E94F82919829F
:1059F00010C08981282F30E08C819D81FC01E20F4D
:105A0000F31F90818B81692F0E94262A89818F5FE5
:105A100089838981883068F302C082E08A838A8121
:105A200026960FB6F894DEBF0FBECDBFCF91DF91A3
:105A30000895DF93CF93CDB7DEB783E161E00E9495
:105A4000BC1184E161E00E94BC1185E161E00E942B
:105A5000BC1186E161E00E94BC1187E161E00E9417
:105A6000BC1188E161E00E94BC1189E161E00E9403
:105A7000BC118AE161E00E94BC11CF91DF910895D1
:105A8000DF93CF93CDB7DEB72E970FB6F894DEBF76
:105A90000FBECDBF8FEF8A8387E160E00E94BC110B
:105AA00088E161E00E94BC1189E161E00E94BC11C3
:105AB0008AE161E00E94BC119E012D5F3F4F83E1AE
:105AC000B9010E94C7129E012C5F3F4F84E1B901CA
:105AD0000E94C7129E012B5F3F4F85E1B9010E94D2
